:1008540001080002140000C101C103C102C100C1AA
:01086400048F
:10067100AF0E7408FE120811AF0F7409FE120811B3
:10068100E5102480FFE433440AFE120811AF11740F
:100691000BFE120811D3E5086480948040163001E6
:1006A10013AF08EFFEE42400FFEE3407FEEF441B16
:1006B100FF120811B2017F1B7E0C1208117F1B7EF5
:1006C1000D1208117F1B7E0E1208117F1B7E0F0277
:0206D10008110E
:0405FB008E168F17B2
:1005FF007C007D0A1202DDAF057408FE120811AEF1
:10060F0016AF177C007D0A1202DD8E168F177C0045
:10061F007D0A1202DDED2480FFE4334409FE120847
:10062F0011AE16AF177C007D0A1202DD8E168F17E2
:10063F007C007D0A1202DDAF05740AFE1208117FDD
:10064F001B7E0B1208117F1B7E0C1208117F1B7E65
:10065F000D1208117F1B7E0E1208117F1B7E0F02D9
:02066F00081170
:1008400012082B7F017E001207F37FCC12076C7F0A
:040850004402076CEB
:1006D30012082B7F017E001207F37FCC12076C7F79
:1006E300BE12076C1207A58F1A1207A5EFFEE51AB3
:1006F300FFFDAC06E4120211E4FBFA7980783D12A7
:1007030001068F198E188D178C16E4FFFE7D207C51
:1007130041AB19AA18A917A816120106E4FBFAF9A6
:08072300783F12001512024A92
:01072B0022AB
:03000B0002047379
:10047300C0E0C0F0C083C082C0D075D000C000C04F
:1004830001C002C003C004C005C006C0070509E5DA
:100493000975F01484E5F0706D20006AD3E51394B8
:1004A30000E51294004010E513151370021512E5D0
:1004B3001345127002D203AE12AF137C027D5812A1
:1004C30002DD7C007D0A1202DD8D11AE12AF137CBA
:1004D300007D3C1202DD7C007D0A1202DD8D10AE30
:1004E30012AF137C007D3C1202DD7E007F0ACFCD6C
:1004F300CFCECCCE1202DD8F0FAE12AF137C007DB8
:100503000A1202DD8D0EE5095407700E3002051242
:10051300067180061206D31205FBE5134512700C13
:10052300300309D2A0C203F514751501D3E5159460
:1005330000E514940040140515E5157002051464D4
:100543003C45147006C2A0F514F515758C3C758AEC
:10055300B0D007D006D005D004D003D002D001D04C
:0C05630000D0D0D082D083D0F0D0E032A5
:03000300020340B5
:10034000C0E0C0F0C083C082C0D075D000C000C083
:0D03500001C002C003C004C005C006C00704
:10035D00C2AF1207D4D2AFBF5B0AD204D200750868
:10036D0004020458EF645A703DAF11FE7C027D58B3
:10037D001202CBAC06AD07E51075F03CA42DFDECDB
:10038D0035F0FCE50F75F00AA42DFFE5F03CFE7C81
:10039D0000EF250EF513EC3EF512C204C2007508F0
:1003AD0000C203020458BF5808200405B20002041D
:1003BD0058BF5305B202020458200403020458BF6B
:1003CD004005751D078047BF4105751D08803FBF5E
:1003DD004205751D098037BF4805751D04802FBF67
:1003ED004905751D058027BF4A05751D06801FBF70
:1003FD005005751D018017BF5105751D02800FBF7A
:10040D005205751D038007EF6459703FF51DE50812
:10041D00B40403851D11E508B40303851D10E5081B
:10042D00B4020DE51DC394064003751D05851D0F12
:10043D00E508B40103851D0ED3E508648094814061
:0B044D0006E50814FF80027F048F0802
:10045800D007D006D005D004D003D002D001D000F8
:0B046800D0D0D082D083D0F0D0E032A2
:10072C00E4F514F515C203C2A07F017E0212081174
:10073C001208717F037E041208117F807E05120857
:10074C0011758911758C3C758AB0D28CD2A9C2886E
:10075C00D2A8D2AF1208407FE87E031207F380F4D0
:1007F300E4FDFCC3ED9FEC9E5013E4FB0BBBC8FC74
:0D080300E4FB0BBB66FC0DBD00010C80E6A4
:0108100022C5
:0A086600EFD394004004001F80F659
:010870002265
:09087100C291D291D293D29222DD
:10081100C293E4FDEF139291C292D292EEC313FE02
:09082100EF13FF0DBD0CEDD293A5
:01082A0022AB
:1007D4007F007E07120811E4FFFEEF25E0FFA2B2BE
:0E07E400E4334207C292D2920EBE07EE7E00B0
:0107F20022E4
:10082B00D2807F0A120866C2807F3C120866D28093
:05083B007F18020866B1
:02076C008F1EDE
:10076E00E4F51F751F08E51E30E00DC2800000D2B3
:10077E00807F06120866800BC2807F06120866D242
:10078E00800000E51EC313F51E151FE51FD3940050
:07079E0050D47F030208663E
:1007A500E4F51BF51C751B08C2800000D280E51C12
:1007B500C313F51CA2809205308003431C807F067D
:0E07C500120866151BE51BD3940050DCAF1C18
:0107D3002203
:10000E000202B6E86480F8E933E83360110460F068
:10001E00ED33EC337009E8FCE9FDEAFEEBFF220458
:10002E0060DED3EB9FEA9EE99DE8C2E78CF0C2F753
:10003E0095F0400CE8CCF8E9CDF9EACEFAEBCFFB1F
:10004E0012028185D0F05804700320D5B3E80470F5
:10005E00075002B2D50202C092D5EC0460F7E4CC90
:10006E00C0E0C398F8603B94186008400DD0E0FBE8
:10007E00020298E4FBFAC9FC8028E830E406E4C9E1
:10008E00FBE4CAFCE830E305E4C9CACBFCE854073C
:10009E006010F8C3E913F9EA13FAEB13FBEC13FC47
:1000AE00D8F130F52FC3E49CFCEF9BFFEE9AFEEDEA
:1000BE0099FDD0E0FBEF4E4D4C701222DB03020295
:1000CE00BDEC2CFCEF33FFEE33FEED33FDED30E7F0
:1000DE00EB020298EF2BFFEE3AFEED39FDD0E0FB7E
:1000EE0050130BBB00030202C0ED13FDEE13FEEF27
:0800FE0013FFEC13FC02029851
:10010600EC4D6011E8497017ED33EC3304600DE4F3
:10011600FCFFFEFD22E933E8330470F80202B61252
:10012600028158046009E4CC248150062850090253
:1001360002C02840030202BDC0E0EB4A7044B98009
:1001460006D0E0FB0202ACEF4E701CBD8008EBFF50
:10015600EAFEE9FD80EBE98DF0A4FEE5F00201EF91
:10016600E9CDF9EAFEEBFFEF89F0A4FCE5F0CE89D4
:10017600F0A42EFFE435F0CD89F0A42DFEE435F091
:100186008067EF4E7005BD80D780C3EF8BF0A4ACBF
:10019600F0EE8BF0A42CFCE435F0F8EF8AF0A42CFA
:1001A600E5F038FCE433CB8DF0A42CFCE5F03BF80D
:1001B600EE8AF0A42CFCE5F038F8E433CF89F0A4FD
:1001C6002CFCE5F038CF3400CE89F0A42FFFE5F003
:1001D6003EFEE433C98DF0A42EFEE5F039CD8AF05B
:1001E600A42FFFE5F03EFEE43DFD33D0E0FB5007D3
:1001F6000BBB000F0202C0EC2CFCEF33FFEE33FE0C
:06020600ED33FD02029839
:10020C0075F020800E75F010800575F0087D007E6D
:10021C00007F003392D530D503120332EC334010FB
:10022C00EF33FFEE33FEED33FDEC33FCD5F0ED2276
:0E023C00E5F0247EA2D513CC92E7CDCEFF22B2
:10024A00EDD2E7CD33EC3392D524814006E4FFFEAC
:10025A00FDFC22FCE4CFCECDCC24E0501174FF800B
:10026A00EDC3CC13CCCD13CDCE13CECF13CF0470A8
:07027A00F030D5DE02033273
:10028100E9D2E7C933E833F892D5EDD2E7CD33ECC3
:0702910033FC5002B2D5223C
:10029800EC30E7100FBF000C0EBE00080DBD0004C7
:1002A8000BEB6014A2D5EB13FCED92E7FD2274FF73
:1002B800FCFDFEFF22E480F8A2D574FF13FC7D80CC
:0302C800E480EFE0
:0300000002056F87
:0C056F00787FE4F6D8FD7581200205B607
:1002CB00EF8DF0A4A8F0CF8CF0A428CE8DF0A42E47
:0202DB00FE2201
:1002DD00BC000BBE0029EF8DF084FFADF022E4CC05
:1002ED00F875F008EF2FFFEE33FEEC33FCEE9DECCE
:1002FD00984005FCEE9DFE0FD5F0E9E4CEFD22ED14
:10030D00F8F5F0EE8420D21CFEADF075F008EF2F5D
:10031D00FFED33FD4007985006D5F0F222C398FD4E
:05032D000FD5F0EA22EB
:0E033200C3E49FFFE49EFEE49DFDE49CFC22DC
:10057B0002072CE493A3F8E493A34003F68001F263
:10058B0008DFF48029E493A3F85407240CC8C33381
:10059B00C4540F4420C8834004F456800146F6DF50
:1005AB00E4800B0102040810204080900854E47E84
:1005BB00019360BCA3FF543F30E509541FFEE49345
:1005CB00A360010ECF54C025E060A840B8E493A30C
:1005DB00FAE493A3F8E493A3C8C582C8CAC583CA37
:1005EB00F0A3C8C582C8CAC583CADFE9DEE780BEEF
:010865000092
:00000001FF
