:100DA300C4BFB1EAD7AACBD92025336420722F73ED
:100DB30000CAB5CAB1D7AACBD92025336420722F74
:100DC30073002020B2CECAFD4E202020253364209C
:100DD300202000CAB5D1E937202020B5E7BBFAC7E8
:100DE300FDB6AF00C4BFB1EAD7AACBD920303030AB
:100DF30020722F7300CAB5CAB1D7AACBD92030301D
:100E03003020722F730020202020D4CBD0D0D6D016
:070E13002020202020200018
:100FE50004553F80000004593DCCCCCD045D3D4CFB
:100FF500CCCD04610000000004650000000001691B
:0410050000016A007C
:100A8500C3E56E9570FDE56D956FFC12031E8F3500
:100A95008E348D338C32AF64AE63AD62AC61AB35F1
:100AA500AA34A933A8321200158F648E638D628C27
:100AB50061AB68AA67A966A865AF35AE34AD33AC3E
:100AC500321200118F398E388D378C36AF64AE6394
:100AD500AD62AC61AB5CAA5BA95AA859120106C00C
:100AE50004C005C006C007AF35AE34AD33AC32AB7C
:100AF50058AA57A956A855120106D003D002D0010D
:100B0500D000120015C004C005C006C007AF39AE3D
:100B150038AD37AC36AB60AA5FA95EA85D12010699
:100B2500D003D002D001D0001200158F3D8E3C8D30
:100B35003B8C3A853568853467853366853265E44F
:100B4500FFFE7D807C3FAB3DAA3CA93BA83A120243
:100B5500AC600D400BE4F53DF53C753B80753A3FC7
:100B6500E4FFFEFDFCAB3DAA3CA93BA83A1202AC52
:100B75005009E4F53DF53CF53BF53AE4FFFE7DC84B
:100B85007C42AB3DAA3CA93BA83A12010612035789
:010B9500223D
:03000B00020B964F
:100B9600C0E0C0F0C083C082C0D075D000C000C025
:0D0BA60001C002C003C004C005C006C007A6
:100BB3000569E574256AF56AD39464400AC28574AD
:100BC3009C256AF56A8002D285E56975F00584E59E
:100BD300F06003020C66E572AE717802C333CE3364
:100BE300CED8F9F5708E6F757100757200120A8593
:100BF3008E738F747535FF75360D7537A3856D3814
:100C0300856E397B007A0079221206727B007A00A6
:100C130079227F007E01120FBF7535FF75360D7582
:100C230037B4856F388570397B007A0079221206D4
:100C3300727B007A0079227F007E02120FBF753526
:100C4300FF75360D7537C58573388574397B007A22
:100C53000079221206727B007A0079227F007E03DC
:090C6300120FBF758C3C758AB0BC
:100C6C00D007D006D005D004D003D002D001D000DC
:0B0C7C00D0D0D082D083D0F0D0E03286
:030003000210DA0E
:0D10DA00C0E00572E57270020571D0E032D1
:100C8700758901758C3C758AB0D28CD2A9D288D26D
:100C9700A8D2AF120F2B7BFF7A0D79D6E4FFFE1295
:100CA7000FBF7BFF7A0D79E77F007E01120FBF7BB5
:100CB700FF7A0D79F87F007E02120FBF7BFF7A0E55
:100CC70079097F007E03120FBFE4FF120E1A8E4EC2
:100CD7008F4FD3E54F94A0E54E940F40067E0F7FCC
:100CE700A08004AE4EAF4F8E4E8F4FAC4EAD4FE44B
:100CF70012031EE4FBFA797A784512020FE4FBFA35
:100D0700790278431201061203578E6D8F6E80B9F0
:10106E00E4FDFCC3ED9FEC9E5013E4FB0BBBC8FCF0
:0D107E00E4FB0BBB66FC0DBD00010C80E621
:01108B002242
:0A10E700EFD394004004001F80F6D0
:0110F10022DC
:100F2B00D2A0C2A37F327E0012106ED2A37F327E7C
:100F3B000012106E7F301210AB7F017E0012106E0C
:100F4B007F0C1210AB7F017E0012106E7F0212100D
:100F5B00AB7F017E0012106E7F011210AB7F017E02
:040F6B000002106E02
:0310A8002480FFA2
:0F10AB008F53C2A17FF812108C00AF530210BAFE
:0F10CB008F53C2A17FFA12108C00AF530210BADC
:10108C00E4FEEF30E704D2A28002C2A20000C2A1AB
:0B109C0000D2A1EF25E0FF0EBE08E728
:0110A7002226
:1010BA00AD07ED54F0FF12108CEDC454F0FF02108E
:0110CA008C99
:04104F00AD07AC0637
:101053007B80AF04AE05BF01027B90BF02027B8899
:0B106300BF03027B98EB2EFF0210ABD6
:04102E00AD07AC0658
:10103200EC5403FFED5407FEEFC31375F008A42E22
:0C104200FEEFC45410FDAF06EFFEEDFF02
:01104E00227F
:100F6F0053077F53053FEFC4540FF512EDC41354CD
:100F7F0007F513ED541F1210A8E5122480FFE51397
:090F8F0075F008A42FFF0210AB5D
:100EDE007F081210AB7F0A1210E77F011210AB12BF
:100EEE0010F2E4F515E5151210A87F801210ABE490
:100EFE00F514E4FF1210CBE4FF1210CB0514E51429
:100F0E00C3941040ED0515E515C3942040D712107B
:0D0F1E00FC7F0C1210AB7F0A7E0002106EEB
:0A10F2007F341210AB7F360210AB02
:0A10FC007F361210AB7F300210ABFC
:040E81008D088B0944
:100E850012102EAC06ECF50CEF543FF50D1210F2D6
:100E9500E4F50AE50D2480250AFF1210ABE50C24C4
:100EA50080FF1210ABE4F50BE50BC39508501EE56A
:100EB5000960047FFF80027F001210CBE509600402
:100EC5007FFF80027F001210CB050B80DB050AE552
:090ED5000AC3941040BD0210FC98
:04100A008C0E8D0FAC
:10100E00E50EF510E50FF51112104FD3E50F948094
:10101E00E50E94004005AF101210CBAF110210CBAD
:100FBF008B508A51895212104FAB50AA51A952121D
:100FCF00057AFF60101210CB74012552F552E435EB
:060FDF0051F55180E422EF
:020E1A008F50F7
:100E1C00E4F551F552C283C282E550C454F0F5504A
:100E2C00E4F553F554308103435201E5503392807D
:100E3C00D2837F031210E7C2837F031210E7E550C1
:100E4C0025E0F550E55225E0F552E55133F5510515
:100E5C0054E55470020553C3940CE553940040C5FB
:100E6C00D282E551C313F551E55213F5523084FD8E
:040E7C00AE51AF5272
:010E8000224F
:10000E000203C3E86480F8E933E83360110460F05A
:10001E00ED33EC337009E8FCE9FDEAFEEBFF220458
:10002E0060DED3EB9FEA9EE99DE8C2E78CF0C2F753
:10003E0095F0400CE8CCF8E9CDF9EACEFAEBCFFB1F
:10004E0012038E85D0F05804700320D5B3E80470E7
:10005E00075002B2D50203CD92D5EC0460F7E4CC82
:10006E00C0E0C398F8603B94186008400DD0E0FBE8
:10007E000203A5E4FBFAC9FC8028E830E406E4C9D3
:10008E00FBE4CAFCE830E305E4C9CACBFCE854073C
:10009E006010F8C3E913F9EA13FAEB13FBEC13FC47
:1000AE00D8F130F52FC3E49CFCEF9BFFEE9AFEEDEA
:1000BE0099FDD0E0FBEF4E4D4C701222DB03020394
:1000CE00CAEC2CFCEF33FFEE33FEED33FDED30E7E3
:1000DE00EB0203A5EF2BFFEE3AFEED39FDD0E0FB70
:1000EE0050130BBB00030203CDED13FDEE13FEEF19
:0800FE0013FFEC13FC0203A543
:10010600EC4D6011E8497017ED33EC3304600DE4F3
:10011600FCFFFEFD22E933E8330470F80203C31244
:10012600038E58046009E4CC248150062850090245
:1001360003CD2840030203CAC0E0EB4A7044B980ED
:1001460006D0E0FB0203B9EF4E701CBD8008EBFF42
:10015600EAFEE9FD80EBE98DF0A4FEE5F00201EF91
:10016600E9CDF9EAFEEBFFEF89F0A4FCE5F0CE89D4
:10017600F0A42EFFE435F0CD89F0A42DFEE435F091
:100186008067EF4E7005BD80D780C3EF8BF0A4ACBF
:10019600F0EE8BF0A42CFCE435F0F8EF8AF0A42CFA
:1001A600E5F038FCE433CB8DF0A42CFCE5F03BF80D
:1001B600EE8AF0A42CFCE5F038F8E433CF89F0A4FD
:1001C6002CFCE5F038CF3400CE89F0A42FFFE5F003
:1001D6003EFEE433C98DF0A42EFEE5F039CD8AF05B
:1001E600A42FFFE5F03EFEE43DFD33D0E0FB5007D3
:1001F6000BBB000F0203CDEC2CFCEF33FFEE33FEFE
:06020600ED33FD0203A52B
:10020C000203CDEC5D046005E8590470030203C3DE
:10021C0012038E580460F6EC4860F2EC7004FDFE9C
:10022C00FF22C860DB2481C85009C39860025006C5
:10023C000203CA9850CAF582E9294B4A7005AB8271
:10024C000203B975F0007C1A7880C3EF9BEE9AED2F
:10025C0099400DC3EF9BFFEE9AFEED99FDE842F03D
:10026C00DC23ACF0D0E0FFD0E0FED0E0FDAB822090
:10027C00E7101BEB60BAEC2CFCEF33FFEE33FEED1A
:10028C0033FD0203A5E803F830E705C0F075F00074
:10029C00EF2FFFEE33FEED33FD40B830E7C280AAFE
:1002AC0074F8CC6480CCC86480C8F582046043C305
:1002BC00EB9FF5F0EA9E42F0E99D42F0E89C45F098
:1002CC0060305018E5825FFFE582F42B5582FB50BD
:1002DC00210ABA001D09B90019088016E5825BFBDA
:1002EC00E582F42F5582FF50090EBE00050DBD00AE
:1002FC00010CC3EB9FF5F0EA9E42F0E99D42F0E859
:0D030C009C45F06007CC4820E701B3EC22CF
:1003190075F020800E75F010800575F0087D007E5F
:10032900007F003392D530D5031205D2EC3340104B
:10033900EF33FFEE33FEED33FDEC33FCD5F0ED2268
:0E034900E5F0247EA2D513CC92E7CDCEFF22A4
:10035700EDD2E7CD33EC3392D524814006E4FFFE9E
:10036700FDFC22FCE4CFCECDCC24E0501174FF80FD
:10037700EDC3CC13CCCD13CDCE13CECF13CF04709A
:07038700F030D5DE0205D2C3
:10061600E5492435F8E6054922783230070278356F
:10062600E475F0011205E002057A2000EB7F2ED278
:10063600008018EF540F2490D43440D4FF30040BBC
:10064600EF24BFB41A0050032461FFE54A60021587
:100656004A054DE54D7002054C30070D7832E475BC
:10066600F0011205E0EF0205C0020F987403D207ED
:100676008003E4C207F5498B328A338934E4F54AAC
:10068600F54CF54DE54A60077F2012065180F57559
:100696004BFFC201C200C202C203C205C206C208A3
:1006A60012061FFF700D3007057F00120662AF4D60
:1006B600AE4C22B4255FC2D5C20412061FFF24D059
:1006C600B40A00501A75F00A784A30D50508B6FF04
:1006D6000106C6A426F620D5047002D20380D924CA
:1006E600CFB41A00EF5004C2E5D20402094FD2017A
:1006F60080C6D20080C0D20280BCD2D580BAD205D4
:1007060080B47F201206512002077401B54A0040CA
:10071600F1120616FF12065102068AD208D2068088
:1007260095120616FB120616FA120616F94A4B70B1
:100736000679467A0A7BFF20022EE54A602A7E0069
:100746008E8275830012059360060EEE654B70F07F
:10075600C2D5EBC0E0EAC0E0E9C0E0EE1209AFD0D6
:10076600E0F9D0E0FAD0E0FB12057AFF60AAEBC010
:10077600E0EAC0E0E9C0E0120651D0E02401F9D079
:10078600E03400FAD0E0FBE54B0460DCD54BD980C1
:1007960087D20280A212099260F7E54B700104121B
:1007A60003D8A94B600DE54B600914F54B120A39C5
:1007B600EF60F3EA30E702F404C3995077EAF425D0
:1007C6004B0430E701E404F54B800D12099260C139
:1007D600EA054B254B1203D8EA7848F630E701E4E0
:1007E600254B04D54B04200501141209AFE4C0E0E3
:1007F600120A397848E6601320E70714F61206391C
:10080600802204F6D0E014C0E07F00120639E54BE2
:100816006007120630154B800B300503120630D0E8
:10082600E002068AD0E00480C512099260A0E54B7A
:10083600041203D87848EAF6E54B20050260010465
:0508460024041209AFBB
:10084B0074FF04C0E0120A39120639E54B20050289
:10085B006003120630D0E0B54BE87F4512064378B3
:10086B0048E67F2B30E7047F2DF404C0E0120651DD
:10087B00D0E075F00A84C0F012063AD0E012063AC6
:10088B0002068A791080027908C206C2088008D253
:10089B00D5790A8004790AC2D5E54B047002F54B71
:1008AB00E4FAFDFEFF120616FC7B0820011312066C
:1008BB0016FD7B1030000A120616FE120616FF7B81
:1008CB0020EC3382D592D55013C3E43000069FFF42
:1008DB00E49EFEE42001039DFDE49CFCE4CBF8C206
:1008EB0001EC700CCFCECDCCE824F8F870F3801768
:1008FB00C3EF33FFEE33FEED33FDEC33FCEB33FB99
:10090B00994002FB0FD8E9EB300105F8D0E0C44861
:10091B00B201C0E00AEC4D4E4F78207B0070C2EA6A
:10092B00B54B0040BCC0E01209B1D0F0D0E02001C3
:10093B0004C4C0E0C4B201C0F012063AD0F0D5F046
:10094B00EB02068A1205F0072753088E5806F84C5F
:10095B0006F44208924F089A44089A49070D430837
:10096B00A05507D146082F45079B470A665006FC42
:10097B002D07002E07232B0704230721200A4F2ABC
:10098B0006BC480000071BE54BB4FF03754B061272
:10099B000616FC120616FD120616FE120616FF7838
:1009AB0041020407790AA2D5200314300509B910B6
:1009BB00020404B9080104A2D52006025001042048
:1009CB0002689202B54A005034C0E07F2030031910
:1009DB007F30A20272067205500F120A08C202C2C1
:1009EB0006C205C2087F30800F300503E9C0E01254
:1009FB000651300503D0E0F9D0E0B54ACC300517ED
:100A0B007F30B9100C1206517F583004077F788065
:100A1B0003B908031206513002057F2D0206517FE0
:100A2B00202008F87F2B2006F322920280CF7F0034
:100A3B00B4070050052441F8E6FF22286E756C6C54
:100A4B002900D2011206163001F8C201784A30D5BE
:100A5B000108F60206BC2D50434958120616240312
:100A6B00B405004001E4900A6193120642743A12F5
:0A0A7B000642D203754A0402088EF9
:10038E00E9D2E7C933E833F892D5EDD2E7CD33ECB5
:07039E0033FC5002B2D5222E
:1003A500EC30E7100FBF000C0EBE00080DBD0004B9
:1003B5000BEB6014A2D5EB13FCED92E7FD2274FF65
:1003C500FCFDFEFF22E480F8A2D574FF13FC7D80BE
:0303D500E480EFD2
:1003D800F920E72824F950037907E4F42402FB18EC
:1003E800DBFDE624FB5014E9600DE4F618E604F69C
:0F03F800B40A08E4F6D9F57401F60A22C2D52238
:10040700ED33EC3392D5FA602AB4FF33EDC2E77BC4
:10041700FF60067A04792CE4227A04793520D50422
:100427007A047930224E614E002B494E46002D4901
:100437004E4600E47A08F608DAFC7B00740722E8E7
:10044700C0E0ECC0E0EDC0E0EEC0E0EFC0E0EA7570
:10045700F010A4CAABF075F04DA42BFBE435F0FC0B
:10046700EA2410FAEB34C5FBEC34D9FCEDC2E7FF04
:1004770075F056A4F42411C5F0F434C58FF0A42AFE
:10048700E5F03BE43CF620E71412053AD0E0FFD054
:10049700E0FED0E0FDD0E0FC12020F8014F404125D
:1004A700053AD0E0FFD0E0FED0E0FDD0E0FC12013D
:1004B70006D0E0F8E6FAEDD2E7CD33EC332482FB41
:1004C700E4C3CF33CFCE33CECD33CD33DBF37B078E
:1004D70075F00A846004F6081B0AE5F0F6088FF049
:1004E700740AA4FFACF08EF0740AA42CFEACF05092
:1004F700010C8DF0740AA42CFDE435F0F608DBDE60
:0305070074072254
:10050A003F8000004120000042C80000447A0000F9
:10051A00461C400047C35000497424004B1896807B
:10052A004CBEBC205A0E1BCA6753C21C749DC5AE72
:10053A00FB60065407601C2323120568EB543860DD
:10054A0009120554120563120106ECF8EDF9EEFAE8
:10055A00EFCB22EB12056380F1543803241C90057B
:10056A000AFE93FC0EEE93FD0EEE930ECE93FF223F
:03000000020D17D7
:0C0D1700787FE4F6D8FD758174020D5E53
:10057A00BB010689828A83E0225002E722BBFE027F
:09058A00E32289828A83E49322B2
:10059300BB010CE58229F582E5833AF583E022501D
:1005A30006E92582F8E622BBFE06E92582F8E22267
:0D05B300E58229F582E5833AF583E4932281
:1005C000BB010689828A83F0225002F722BBFE011A
:0205D000F32214
:0E05D200C3E49FFFE49EFEE49DFDE49CFC223A
:1005E000FAE6FB0808E6F925F0F618E6CA3AF6221C
:1005F000D083D082F8E4937012740193700DA3A39A
:1006000093F8740193F5828883E4737402936860AD
:06061000EFA3A3A380DFAD
:100F9800EFB40A07740D120FA3740A309811A899B8
:100FA800B8130CC2983098FDA899C298B811F630B9
:070FB80099FDC299F5992291
:100D2300020C87E493A3F8E493A34003F68001F253
:100D330008DFF48029E493A3F85407240CC8C333D1
:100D4300C4540F4420C8834004F456800146F6DFA0
:100D5300E4800B0102040810204080900FE5E47E3C
:100D6300019360BCA3FF543F30E509541FFEE49395
:100D7300A360010ECF54C025E060A840B8E493A35C
:100D8300FAE493A3F8E493A3C8C582C8CAC583CA87
:100D9300F0A3C8C582C8CAC583CADFE9DEE780BE3F
:0110090000E6
:00000001FF
